{
  "contracts/erc20.sol": {
    "NutBux": {
      "abi": [
        {
          "inputs": [],
          "stateMutability": "nonpayable",
          "type": "constructor"
        },
        {
          "anonymous": false,
          "inputs": [
            {
              "indexed": true,
              "internalType": "address",
              "name": "tokenOwner",
              "type": "address"
            },
            {
              "indexed": true,
              "internalType": "address",
              "name": "spender",
              "type": "address"
            },
            {
              "indexed": false,
              "internalType": "uint256",
              "name": "tokens",
              "type": "uint256"
            }
          ],
          "name": "Approval",
          "type": "event"
        },
        {
          "anonymous": false,
          "inputs": [
            {
              "indexed": true,
              "internalType": "address",
              "name": "from",
              "type": "address"
            },
            {
              "indexed": true,
              "internalType": "address",
              "name": "to",
              "type": "address"
            },
            {
              "indexed": false,
              "internalType": "uint256",
              "name": "tokens",
              "type": "uint256"
            }
          ],
          "name": "Transfer",
          "type": "event"
        },
        {
          "inputs": [
            {
              "internalType": "address",
              "name": "tokenOwner",
              "type": "address"
            },
            {
              "internalType": "address",
              "name": "spender",
              "type": "address"
            }
          ],
          "name": "allowance",
          "outputs": [
            {
              "internalType": "uint256",
              "name": "",
              "type": "uint256"
            }
          ],
          "stateMutability": "view",
          "type": "function"
        },
        {
          "inputs": [
            {
              "internalType": "address",
              "name": "spender",
              "type": "address"
            },
            {
              "internalType": "uint256",
              "name": "tokens",
              "type": "uint256"
            }
          ],
          "name": "approve",
          "outputs": [
            {
              "internalType": "bool",
              "name": "success",
              "type": "bool"
            }
          ],
          "stateMutability": "nonpayable",
          "type": "function"
        },
        {
          "inputs": [
            {
              "internalType": "address",
              "name": "tokenOwner",
              "type": "address"
            }
          ],
          "name": "balanceOf",
          "outputs": [
            {
              "internalType": "uint256",
              "name": "balance",
              "type": "uint256"
            }
          ],
          "stateMutability": "view",
          "type": "function"
        },
        {
          "inputs": [
            {
              "internalType": "address",
              "name": "",
              "type": "address"
            }
          ],
          "name": "balances",
          "outputs": [
            {
              "internalType": "uint256",
              "name": "",
              "type": "uint256"
            }
          ],
          "stateMutability": "view",
          "type": "function"
        },
        {
          "inputs": [],
          "name": "decimals",
          "outputs": [
            {
              "internalType": "uint256",
              "name": "",
              "type": "uint256"
            }
          ],
          "stateMutability": "view",
          "type": "function"
        },
        {
          "inputs": [],
          "name": "founder",
          "outputs": [
            {
              "internalType": "address",
              "name": "",
              "type": "address"
            }
          ],
          "stateMutability": "view",
          "type": "function"
        },
        {
          "inputs": [],
          "name": "name",
          "outputs": [
            {
              "internalType": "string",
              "name": "",
              "type": "string"
            }
          ],
          "stateMutability": "view",
          "type": "function"
        },
        {
          "inputs": [],
          "name": "sumbol",
          "outputs": [
            {
              "internalType": "string",
              "name": "",
              "type": "string"
            }
          ],
          "stateMutability": "view",
          "type": "function"
        },
        {
          "inputs": [],
          "name": "totalSupply",
          "outputs": [
            {
              "internalType": "uint256",
              "name": "",
              "type": "uint256"
            }
          ],
          "stateMutability": "view",
          "type": "function"
        },
        {
          "inputs": [
            {
              "internalType": "address",
              "name": "to",
              "type": "address"
            },
            {
              "internalType": "uint256",
              "name": "tokens",
              "type": "uint256"
            }
          ],
          "name": "transfer",
          "outputs": [
            {
              "internalType": "bool",
              "name": "success",
              "type": "bool"
            }
          ],
          "stateMutability": "nonpayable",
          "type": "function"
        },
        {
          "inputs": [
            {
              "internalType": "address",
              "name": "from",
              "type": "address"
            },
            {
              "internalType": "address",
              "name": "to",
              "type": "address"
            },
            {
              "internalType": "uint256",
              "name": "tokens",
              "type": "uint256"
            }
          ],
          "name": "transferFrom",
          "outputs": [
            {
              "internalType": "bool",
              "name": "success",
              "type": "bool"
            }
          ],
          "stateMutability": "nonpayable",
          "type": "function"
        }
      ],
      "evm": {
        "bytecode": {
          "linkReferences": {},
          "object": "60806040526040518060400160405280600981526020017f5065616e757442757800000000000000000000000000000000000000000000008152506000908051906020019062000051929190620002db565b506040518060400160405280600481526020017f5042555800000000000000000000000000000000000000000000000000000000815250600190805190602001906200009f929190620002db565b506000600255348015620000b257600080fd5b50620000e77ffeb149b1ecbf870a404fba82f48122ff2c50022112f2bf6d09d62d3c9627132a60001b620002d860201b60201c565b6200011b7f1bdc51f2051c1281367dc7bbd2ec80fb5a91b4fb2a01d40a97365670672d6b3360001b620002d860201b60201c565b6200014f7fb3a778341c61eea3328c49ec56dbc452a5818de1d1e3f294543cb2138d22f6e960001b620002d860201b60201c565b620f42406003819055506200018d7f4f3dd15e163a6d1f688bd001ebba6800b19164924f2574aa5439c82e6f7eeda860001b620002d860201b60201c565b620001c17fdb3785c7d1af5069ef50ab53e39b8242048292002ccf9cc876274bc324bc3d6060001b620002d860201b60201c565b33600460006101000a81548173ffffffffffffffffffffffffffffffffffffffff021916908373ffffffffffffffffffffffffffffffffffffffff160217905550620002367fc6b1c60753fa4ca2ffc4a6dc9b3e2d412c3df7c3ebc9879c4735a9c7345fe83d60001b620002d860201b60201c565b6200026a7fca4ac67347e2a262b04cbfa3077d3acf3d96ceb4e90f4c8c570d05b29485bb1060001b620002d860201b60201c565b60035460056000600460009054906101000a900473ffffffffffffffffffffffffffffffffffffffff1673ffffffffffffffffffffffffffffffffffffffff1673ffffffffffffffffffffffffffffffffffffffff16815260200190815260200160002081905550620003f0565b50565b828054620002e9906200038b565b90600052602060002090601f0160209004810192826200030d576000855562000359565b82601f106200032857805160ff191683800117855562000359565b8280016001018555821562000359579182015b82811115620003585782518255916020019190600101906200033b565b5b5090506200036891906200036c565b5090565b5b80821115620003875760008160009055506001016200036d565b5090565b60006002820490506001821680620003a457607f821691505b60208210811415620003bb57620003ba620003c1565b5b50919050565b7f4e487b7100000000000000000000000000000000000000000000000000000000600052602260045260246000fd5b61164f80620004006000396000f3fe608060405234801561001057600080fd5b50600436106100a95760003560e01c806327e235e31161007157806327e235e314610168578063313ce567146101985780634d853ee5146101b657806370a08231146101d4578063a9059cbb14610204578063dd62ed3e14610234576100a9565b806306fdde03146100ae57806309055723146100cc578063095ea7b3146100ea57806318160ddd1461011a57806323b872dd14610138575b600080fd5b6100b6610264565b6040516100c391906113ec565b60405180910390f35b6100d46102f2565b6040516100e191906113ec565b60405180910390f35b61010460048036038101906100ff9190611314565b610380565b60405161011191906113d1565b60405180910390f35b61012261075f565b60405161012f919061140e565b60405180910390f35b610152600480360381019061014d91906112c5565b610765565b60405161015f91906113d1565b60405180910390f35b610182600480360381019061017d9190611260565b610c72565b60405161018f919061140e565b60405180910390f35b6101a0610c8a565b6040516101ad919061140e565b60405180910390f35b6101be610c90565b6040516101cb91906113b6565b60405180910390f35b6101ee60048036038101906101e99190611260565b610cb6565b6040516101fb919061140e565b60405180910390f35b61021e60048036038101906102199190611314565b610d83565b60405161022b91906113d1565b60405180910390f35b61024e60048036038101906102499190611289565b611128565b60405161025b919061140e565b60405180910390f35b600080546102719061154a565b80601f016020809104026020016040519081016040528092919081815260200182805461029d9061154a565b80156102ea5780601f106102bf576101008083540402835291602001916102ea565b820191906000526020600020905b8154815290600101906020018083116102cd57829003601f168201915b505050505081565b600180546102ff9061154a565b80601f016020809104026020016040519081016040528092919081815260200182805461032b9061154a565b80156103785780601f1061034d57610100808354040283529160200191610378565b820191906000526020600020905b81548152906001019060200180831161035b57829003601f168201915b505050505081565b60006103ae7fbebab622708cb58a1eb8765410e4987dc384fb53f5c50d3a2319f03ed1378b1f60001b611233565b6103da7f5aad7e2216d50dd22bf93beab0d55ea27193db1b154c2ac88b5183560461a93760001b611233565b6104067f39fc586e03afb058b21c37ba8dd9346f1dad62a1af709ae8ccddd9a3f7a4508d60001b611233565b6104327ffd0efe67c66588d01c391f2973bd4140ec894df61fcf3a66026d1ed4725e7d7a60001b611233565b81600560003373ffffffffffffffffffffffffffffffffffffffff1673ffffffffffffffffffffffffffffffffffffffff16815260200190815260200160002054101561047e57600080fd5b6104aa7fe139a84da8f58b2ec58c1f414d3b7e3fd8c658282ce31ccfc173bcbe8d5c257960001b611233565b6104d67f436c2b75446cf55ec1b96a4662fdff6ec687b7af1adda99bdea12ad81a2df4ab60001b611233565b6105027fd0d34cfb453f74e872f17a0e10147d290c22f0afb99495107963ece528218c0b60001b611233565b61052e7fe5f0c31b47d4496bdbe05a5b2905cd8410d7ece10ce94395e84c4396a6dcf93d60001b611233565b6000821161053b57600080fd5b6105677fff56f9aa99570fede4229536f1f122d14a28125b8b33790cba7b23fdc937c93560001b611233565b6105937fd42af5ffb61b68f1015981dd63c3df15956f0c507cb8622eb40f46a2c3359ba360001b611233565b6105bf7ff3e618b68c8fdd2bbc8b38ad20e1c1d39258cc69bdf8fadda3af629b88b838e960001b611233565b81600660003373ffffffffffffffffffffffffffffffffffffffff1673ffffffffffffffffffffffffffffffffffffffff16815260200190815260200160002060008573ffffffffffffffffffffffffffffffffffffffff1673ffffffffffffffffffffffffffffffffffffffff1681526020019081526020016000208190555061066c7f0fb950642280781ad33b7b4fa474998d7ffca76804ba3a5b71f23b08cdb708b760001b611233565b6106987f072a3c49419048ce1ea2e62b6f282984632c24a81b997162968a95b03123e37260001b611233565b8273ffffffffffffffffffffffffffffffffffffffff163373ffffffffffffffffffffffffffffffffffffffff167f8c5be1e5ebec7d5bd14f71427d1e84f3dd0314c0f7b2291e5b200ac8c7c3b925846040516106f5919061140e565b60405180910390a36107297f3c3941758c8f80df0e41a751d44ad5c3eed46a75fb53ff7fb11508ca2a4b59af60001b611233565b6107557fca609ae588c30c2eb8040c74bd89cdef2932391ce9efbe36bfcb624b0e59307960001b611233565b6001905092915050565b60035481565b60006107937f7831d576af861568b5e64acd47c96e3582382a04a901771866ea5e1f03558e2560001b611233565b6107bf7fe79226eba20069b2aaa74e97c677a29136338b12d8cb69751fe8923515173b6860001b611233565b6107eb7f73c6fa906a8d58cf879e10773482581250ec220daa44c42b0e326097cd1c05a560001b611233565b6108177fd7fcca6e076a3c29d2ab4ec64dcf3835aace91c7d92c970efd0f32b00a90149a60001b611233565b81600660008673ffffffffffffffffffffffffffffffffffffffff1673ffffffffffffffffffffffffffffffffffffffff16815260200190815260200160002060008573ffffffffffffffffffffffffffffffffffffffff1673ffffffffffffffffffffffffffffffffffffffff1681526020019081526020016000205410156108a057600080fd5b6108cc7f4b1bfbcf17de7f291283bd907e6bcd90627d80a45c865e7a58e19c727b7be4dd60001b611233565b6108f87f7612101bc40ad79594697719a85894c2a9925568004dd3bcd9f2e83536407cd660001b611233565b6109247f320c31fb2386bd8524338d0a40c449bd408d458d5300c11d8c12f4e294fe6c8460001b611233565b6109507f7f02873f2250ca63311fb7e1d15e4d4094360c4486d6858e597bc91f36e469b760001b611233565b81600560008673ffffffffffffffffffffffffffffffffffffffff1673ffffffffffffffffffffffffffffffffffffffff16815260200190815260200160002054101561099c57600080fd5b6109c87fcfad368ea9a93afe446e7697f35707bc5daa4b866aba52933d9a1a0c27a20aff60001b611233565b6109f47f726e1bba8fa7be39bf95c2132eeaceea08bdb90a6ced558f1c7b1f82c01561b160001b611233565b610a207f7cfc0b5dd618f3fbe94fad0455143e2cf9ede5d8cf19ae7945a4ea4a3dc65d0f60001b611233565b81600560008673ffffffffffffffffffffffffffffffffffffffff1673ffffffffffffffffffffffffffffffffffffffff1681526020019081526020016000206000828254610a6f919061149b565b92505081905550610aa27f227dd8e16fff50d74a5c2890d8a21bbf55fd5c5e9f3a40110a4e7d00af5811cd60001b611233565b610ace7f93d9a282078af35bc7cd05ec25a6dc58d68dea67ae3d85c9ee6317131e9c7f9960001b611233565b81600560008573ffffffffffffffffffffffffffffffffffffffff1673ffffffffffffffffffffffffffffffffffffffff1681526020019081526020016000206000828254610b1d9190611445565b92505081905550610b507fe630f7d1baea2431fdefe57f3cafc8aae9b6a5e9c41befbd32446b64bc29f7d860001b611233565b610b7c7faff3aeff76e75a70eb0cfc861e487f238c7d1c35d4d865d8e8ac0c95b876c02160001b611233565b81600660008673ffffffffffffffffffffffffffffffffffffffff1673ffffffffffffffffffffffffffffffffffffffff16815260200190815260200160002060008573ffffffffffffffffffffffffffffffffffffffff1673ffffffffffffffffffffffffffffffffffffffff1681526020019081526020016000206000828254610c08919061149b565b92505081905550610c3b7f7c610da1f0a8229fe1b951018e1b16fad2bd4ded6381d2b870fc0bf774ca64f860001b611233565b610c677f93474dd6115323a533fbd19f236a484ca268265ee353f13844115df79669984460001b611233565b600190509392505050565b60056020528060005260406000206000915090505481565b60025481565b600460009054906101000a900473ffffffffffffffffffffffffffffffffffffffff1681565b6000610ce47f5fd314e44b5f61eb3548f826133ac4a32ccce0825d042ef539ceac1398d609f560001b611233565b610d107f5ff202600fc4cda142511aa8ba28e3341cdb57871d01afff0cbff2a87637f32660001b611233565b610d3c7f508509d0f7d245d51f8155db77836f30db20b66193662500aec9e73d46e3d65b60001b611233565b600560008373ffffffffffffffffffffffffffffffffffffffff1673ffffffffffffffffffffffffffffffffffffffff168152602001908152602001600020549050919050565b6000610db17f0fa8157e2bc1e1a8b3d7c3caf3bfbb0b6c0438239cb4ba7a7bc745c1bd2cb28d60001b611233565b610ddd7f89ec3d5fa47518ab656c82787cfeb8d4cccdb94b8b5e82442fdc5a699abf810560001b611233565b610e097f67a3da2ce4c4eb9fa0d0033ef5e09bdc671982053c6e8213e6b6cfce3bd651bf60001b611233565b610e357f4fdcbfdb329b93cbb587cfa862039b4b1d4b7292f17534e48c2557b72cdcf3b160001b611233565b81600560003373ffffffffffffffffffffffffffffffffffffffff1673ffffffffffffffffffffffffffffffffffffffff168152602001908152602001600020541015610e8157600080fd5b610ead7f0127321ac9f0d96d0293a1f38c24730e7cf498807e2e18a1e32228832b48a7e060001b611233565b610ed97fdc8db3295c90ff8ac4e72772fc63b91713a653e6343f7e448683ae5f45ac02cb60001b611233565b610f057f75b7fabe27e2f196ba4ec7ba16756ec0281277b92cc41819bc01aa0d9443047660001b611233565b81600560008573ffffffffffffffffffffffffffffffffffffffff1673ffffffffffffffffffffffffffffffffffffffff1681526020019081526020016000206000828254610f549190611445565b92505081905550610f877f1ed0d3e82af38f585a0f6f5609e9eb3c8d918e41cd753f6f7f167ee1620fc96960001b611233565b610fb37f9461b8ab0a957db919d73d69c5935ce164eccb69025b13c2fdfd2678ba9e70a760001b611233565b81600560003373ffffffffffffffffffffffffffffffffffffffff1673ffffffffffffffffffffffffffffffffffffffff1681526020019081526020016000206000828254611002919061149b565b925050819055506110357faac08058b7fcfec0fa99dede83b142e101657e97c500db6a6330a5f81fb8ddee60001b611233565b6110617fb348e05a046327a1b9b0aa11e83991f7cdf4060d7c565eab2d4f4763c39b497a60001b611233565b8273ffffffffffffffffffffffffffffffffffffffff163373ffffffffffffffffffffffffffffffffffffffff167fddf252ad1be2c89b69c2b068fc378daa952ba7f163c4a11628f55a4df523b3ef846040516110be919061140e565b60405180910390a36110f27f246365ab12e82fd24c290383aa3e2e9c7b69fcbef09eaad7381b0c22046b448860001b611233565b61111e7fa30ffebe28d5bd57d953a3ede94ccb6022afe40c986c266b0bcff3d899ccf38e60001b611233565b6001905092915050565b60006111567f62bd97270041134d24aaa8b1084aa775a91aa44f389916f5aeb9d79e558cbe7e60001b611233565b6111827f30c228534b679c7a894cf861185f4b08b8a5354535418dc792a6a16c5737679660001b611233565b6111ae7fd26de2d9114ef91ebbdb5fe877c5d1f9aa9dd6bc98887e878c4bbdfd3d30039360001b611233565b600660008473ffffffffffffffffffffffffffffffffffffffff1673ffffffffffffffffffffffffffffffffffffffff16815260200190815260200160002060008373ffffffffffffffffffffffffffffffffffffffff1673ffffffffffffffffffffffffffffffffffffffff16815260200190815260200160002054905092915050565b50565b600081359050611245816115eb565b92915050565b60008135905061125a81611602565b92915050565b60006020828403121561127257600080fd5b600061128084828501611236565b91505092915050565b6000806040838503121561129c57600080fd5b60006112aa85828601611236565b92505060206112bb85828601611236565b9150509250929050565b6000806000606084860312156112da57600080fd5b60006112e886828701611236565b93505060206112f986828701611236565b925050604061130a8682870161124b565b9150509250925092565b6000806040838503121561132757600080fd5b600061133585828601611236565b92505060206113468582860161124b565b9150509250929050565b611359816114cf565b82525050565b611368816114e1565b82525050565b600061137982611429565b6113838185611434565b9350611393818560208601611517565b61139c816115da565b840191505092915050565b6113b08161150d565b82525050565b60006020820190506113cb6000830184611350565b92915050565b60006020820190506113e6600083018461135f565b92915050565b60006020820190508181036000830152611406818461136e565b905092915050565b600060208201905061142360008301846113a7565b92915050565b600081519050919050565b600082825260208201905092915050565b60006114508261150d565b915061145b8361150d565b9250827fffffffffffffffffffffffffffffffffffffffffffffffffffffffffffffffff038211156114905761148f61157c565b5b828201905092915050565b60006114a68261150d565b91506114b18361150d565b9250828210156114c4576114c361157c565b5b828203905092915050565b60006114da826114ed565b9050919050565b60008115159050919050565b600073ffffffffffffffffffffffffffffffffffffffff82169050919050565b6000819050919050565b60005b8381101561153557808201518184015260208101905061151a565b83811115611544576000848401525b50505050565b6000600282049050600182168061156257607f821691505b60208210811415611576576115756115ab565b5b50919050565b7f4e487b7100000000000000000000000000000000000000000000000000000000600052601160045260246000fd5b7f4e487b7100000000000000000000000000000000000000000000000000000000600052602260045260246000fd5b6000601f19601f8301169050919050565b6115f4816114cf565b81146115ff57600080fd5b50565b61160b8161150d565b811461161657600080fd5b5056fea2646970667358221220186d46126d32e1304149df52bc3c38d5090f8b04a1f8620efcb0b552fef3c3f864736f6c63430008040033",
          "opcodes": "PUSH1 0x80 PUSH1 0x40 MSTORE PUSH1 0x40 MLOAD DUP1 PUSH1 0x40 ADD PUSH1 0x40 MSTORE DUP1 PUSH1 0x9 DUP2 MSTORE PUSH1 0x20 ADD PUSH32 0x5065616E75744275780000000000000000000000000000000000000000000000 DUP2 MSTORE POP PUSH1 0x0 SWAP1 DUP1 MLOAD SWAP1 PUSH1 0x20 ADD SWAP1 PUSH3 0x51 SWAP3 SWAP2 SWAP1 PUSH3 0x2DB JUMP JUMPDEST POP PUSH1 0x40 MLOAD DUP1 PUSH1 0x40 ADD PUSH1 0x40 MSTORE DUP1 PUSH1 0x4 DUP2 MSTORE PUSH1 0x20 ADD PUSH32 0x5042555800000000000000000000000000000000000000000000000000000000 DUP2 MSTORE POP PUSH1 0x1 SWAP1 DUP1 MLOAD SWAP1 PUSH1 0x20 ADD SWAP1 PUSH3 0x9F SWAP3 SWAP2 SWAP1 PUSH3 0x2DB JUMP JUMPDEST POP PUSH1 0x0 PUSH1 0x2 SSTORE CALLVALUE DUP1 ISZERO PUSH3 0xB2 JUMPI PUSH1 0x0 DUP1 REVERT JUMPDEST POP PUSH3 0xE7 PUSH32 0xFEB149B1ECBF870A404FBA82F48122FF2C50022112F2BF6D09D62D3C9627132A PUSH1 0x0 SHL PUSH3 0x2D8 PUSH1 0x20 SHL PUSH1 0x20 SHR JUMP JUMPDEST PUSH3 0x11B PUSH32 0x1BDC51F2051C1281367DC7BBD2EC80FB5A91B4FB2A01D40A97365670672D6B33 PUSH1 0x0 SHL PUSH3 0x2D8 PUSH1 0x20 SHL PUSH1 0x20 SHR JUMP JUMPDEST PUSH3 0x14F PUSH32 0xB3A778341C61EEA3328C49EC56DBC452A5818DE1D1E3F294543CB2138D22F6E9 PUSH1 0x0 SHL PUSH3 0x2D8 PUSH1 0x20 SHL PUSH1 0x20 SHR JUMP JUMPDEST PUSH3 0xF4240 PUSH1 0x3 DUP2 SWAP1 SSTORE POP PUSH3 0x18D PUSH32 0x4F3DD15E163A6D1F688BD001EBBA6800B19164924F2574AA5439C82E6F7EEDA8 PUSH1 0x0 SHL PUSH3 0x2D8 PUSH1 0x20 SHL PUSH1 0x20 SHR JUMP JUMPDEST PUSH3 0x1C1 PUSH32 0xDB3785C7D1AF5069EF50AB53E39B8242048292002CCF9CC876274BC324BC3D60 PUSH1 0x0 SHL PUSH3 0x2D8 PUSH1 0x20 SHL PUSH1 0x20 SHR JUMP JUMPDEST CALLER PUSH1 0x4 PUSH1 0x0 PUSH2 0x100 EXP DUP2 SLOAD DUP2 PUSH20 0xFFFFFFFFFFFFFFFFFFFFFFFFFFFFFFFFFFFFFFFF MUL NOT AND SWAP1 DUP4 PUSH20 0xFFFFFFFFFFFFFFFFFFFFFFFFFFFFFFFFFFFFFFFF AND MUL OR SWAP1 SSTORE POP PUSH3 0x236 PUSH32 0xC6B1C60753FA4CA2FFC4A6DC9B3E2D412C3DF7C3EBC9879C4735A9C7345FE83D PUSH1 0x0 SHL PUSH3 0x2D8 PUSH1 0x20 SHL PUSH1 0x20 SHR JUMP JUMPDEST PUSH3 0x26A PUSH32 0xCA4AC67347E2A262B04CBFA3077D3ACF3D96CEB4E90F4C8C570D05B29485BB10 PUSH1 0x0 SHL PUSH3 0x2D8 PUSH1 0x20 SHL PUSH1 0x20 SHR JUMP JUMPDEST PUSH1 0x3 SLOAD PUSH1 0x5 PUSH1 0x0 PUSH1 0x4 PUSH1 0x0 SWAP1 SLOAD SWAP1 PUSH2 0x100 EXP SWAP1 DIV PUSH20 0xFFFFFFFFFFFFFFFFFFFFFFFFFFFFFFFFFFFFFFFF AND PUSH20 0xFFFFFFFFFFFFFFFFFFFFFFFFFFFFFFFFFFFFFFFF AND PUSH20 0xFFFFFFFFFFFFFFFFFFFFFFFFFFFFFFFFFFFFFFFF AND DUP2 MSTORE PUSH1 0x20 ADD SWAP1 DUP2 MSTORE PUSH1 0x20 ADD PUSH1 0x0 KECCAK256 DUP2 SWAP1 SSTORE POP PUSH3 0x3F0 JUMP JUMPDEST POP JUMP JUMPDEST DUP3 DUP1 SLOAD PUSH3 0x2E9 SWAP1 PUSH3 0x38B JUMP JUMPDEST SWAP1 PUSH1 0x0 MSTORE PUSH1 0x20 PUSH1 0x0 KECCAK256 SWAP1 PUSH1 0x1F ADD PUSH1 0x20 SWAP1 DIV DUP2 ADD SWAP3 DUP3 PUSH3 0x30D JUMPI PUSH1 0x0 DUP6 SSTORE PUSH3 0x359 JUMP JUMPDEST DUP3 PUSH1 0x1F LT PUSH3 0x328 JUMPI DUP1 MLOAD PUSH1 0xFF NOT AND DUP4 DUP1 ADD OR DUP6 SSTORE PUSH3 0x359 JUMP JUMPDEST DUP3 DUP1 ADD PUSH1 0x1 ADD DUP6 SSTORE DUP3 ISZERO PUSH3 0x359 JUMPI SWAP2 DUP3 ADD JUMPDEST DUP3 DUP2 GT ISZERO PUSH3 0x358 JUMPI DUP3 MLOAD DUP3 SSTORE SWAP2 PUSH1 0x20 ADD SWAP2 SWAP1 PUSH1 0x1 ADD SWAP1 PUSH3 0x33B JUMP JUMPDEST JUMPDEST POP SWAP1 POP PUSH3 0x368 SWAP2 SWAP1 PUSH3 0x36C JUMP JUMPDEST POP SWAP1 JUMP JUMPDEST JUMPDEST DUP1 DUP3 GT ISZERO PUSH3 0x387 JUMPI PUSH1 0x0 DUP2 PUSH1 0x0 SWAP1 SSTORE POP PUSH1 0x1 ADD PUSH3 0x36D JUMP JUMPDEST POP SWAP1 JUMP JUMPDEST PUSH1 0x0 PUSH1 0x2 DUP3 DIV SWAP1 POP PUSH1 0x1 DUP3 AND DUP1 PUSH3 0x3A4 JUMPI PUSH1 0x7F DUP3 AND SWAP2 POP JUMPDEST PUSH1 0x20 DUP3 LT DUP2 EQ ISZERO PUSH3 0x3BB JUMPI PUSH3 0x3BA PUSH3 0x3C1 JUMP JUMPDEST JUMPDEST POP SWAP2 SWAP1 POP JUMP JUMPDEST PUSH32 0x4E487B7100000000000000000000000000000000000000000000000000000000 PUSH1 0x0 MSTORE PUSH1 0x22 PUSH1 0x4 MSTORE PUSH1 0x24 PUSH1 0x0 REVERT JUMPDEST PUSH2 0x164F DUP1 PUSH3 0x400 PUSH1 0x0 CODECOPY PUSH1 0x0 RETURN INVALID PUSH1 0x80 PUSH1 0x40 MSTORE CALLVALUE DUP1 ISZERO PUSH2 0x10 JUMPI PUSH1 0x0 DUP1 REVERT JUMPDEST POP PUSH1 0x4 CALLDATASIZE LT PUSH2 0xA9 JUMPI PUSH1 0x0 CALLDATALOAD PUSH1 0xE0 SHR DUP1 PUSH4 0x27E235E3 GT PUSH2 0x71 JUMPI DUP1 PUSH4 0x27E235E3 EQ PUSH2 0x168 JUMPI DUP1 PUSH4 0x313CE567 EQ PUSH2 0x198 JUMPI DUP1 PUSH4 0x4D853EE5 EQ PUSH2 0x1B6 JUMPI DUP1 PUSH4 0x70A08231 EQ PUSH2 0x1D4 JUMPI DUP1 PUSH4 0xA9059CBB EQ PUSH2 0x204 JUMPI DUP1 PUSH4 0xDD62ED3E EQ PUSH2 0x234 JUMPI PUSH2 0xA9 JUMP JUMPDEST DUP1 PUSH4 0x6FDDE03 EQ PUSH2 0xAE JUMPI DUP1 PUSH4 0x9055723 EQ PUSH2 0xCC JUMPI DUP1 PUSH4 0x95EA7B3 EQ PUSH2 0xEA JUMPI DUP1 PUSH4 0x18160DDD EQ PUSH2 0x11A JUMPI DUP1 PUSH4 0x23B872DD EQ PUSH2 0x138 JUMPI JUMPDEST PUSH1 0x0 DUP1 REVERT JUMPDEST PUSH2 0xB6 PUSH2 0x264 JUMP JUMPDEST PUSH1 0x40 MLOAD PUSH2 0xC3 SWAP2 SWAP1 PUSH2 0x13EC JUMP JUMPDEST PUSH1 0x40 MLOAD DUP1 SWAP2 SUB SWAP1 RETURN JUMPDEST PUSH2 0xD4 PUSH2 0x2F2 JUMP JUMPDEST PUSH1 0x40 MLOAD PUSH2 0xE1 SWAP2 SWAP1 PUSH2 0x13EC JUMP JUMPDEST PUSH1 0x40 MLOAD DUP1 SWAP2 SUB SWAP1 RETURN JUMPDEST PUSH2 0x104 PUSH1 0x4 DUP1 CALLDATASIZE SUB DUP2 ADD SWAP1 PUSH2 0xFF SWAP2 SWAP1 PUSH2 0x1314 JUMP JUMPDEST PUSH2 0x380 JUMP JUMPDEST PUSH1 0x40 MLOAD PUSH2 0x111 SWAP2 SWAP1 PUSH2 0x13D1 JUMP JUMPDEST PUSH1 0x40 MLOAD DUP1 SWAP2 SUB SWAP1 RETURN JUMPDEST PUSH2 0x122 PUSH2 0x75F JUMP JUMPDEST PUSH1 0x40 MLOAD PUSH2 0x12F SWAP2 SWAP1 PUSH2 0x140E JUMP JUMPDEST PUSH1 0x40 MLOAD DUP1 SWAP2 SUB SWAP1 RETURN JUMPDEST PUSH2 0x152 PUSH1 0x4 DUP1 CALLDATASIZE SUB DUP2 ADD SWAP1 PUSH2 0x14D SWAP2 SWAP1 PUSH2 0x12C5 JUMP JUMPDEST PUSH2 0x765 JUMP JUMPDEST PUSH1 0x40 MLOAD PUSH2 0x15F SWAP2 SWAP1 PUSH2 0x13D1 JUMP JUMPDEST PUSH1 0x40 MLOAD DUP1 SWAP2 SUB SWAP1 RETURN JUMPDEST PUSH2 0x182 PUSH1 0x4 DUP1 CALLDATASIZE SUB DUP2 ADD SWAP1 PUSH2 0x17D SWAP2 SWAP1 PUSH2 0x1260 JUMP JUMPDEST PUSH2 0xC72 JUMP JUMPDEST PUSH1 0x40 MLOAD PUSH2 0x18F SWAP2 SWAP1 PUSH2 0x140E JUMP JUMPDEST PUSH1 0x40 MLOAD DUP1 SWAP2 SUB SWAP1 RETURN JUMPDEST PUSH2 0x1A0 PUSH2 0xC8A JUMP JUMPDEST PUSH1 0x40 MLOAD PUSH2 0x1AD SWAP2 SWAP1 PUSH2 0x140E JUMP JUMPDEST PUSH1 0x40 MLOAD DUP1 SWAP2 SUB SWAP1 RETURN JUMPDEST PUSH2 0x1BE PUSH2 0xC90 JUMP JUMPDEST PUSH1 0x40 MLOAD PUSH2 0x1CB SWAP2 SWAP1 PUSH2 0x13B6 JUMP JUMPDEST PUSH1 0x40 MLOAD DUP1 SWAP2 SUB SWAP1 RETURN JUMPDEST PUSH2 0x1EE PUSH1 0x4 DUP1 CALLDATASIZE SUB DUP2 ADD SWAP1 PUSH2 0x1E9 SWAP2 SWAP1 PUSH2 0x1260 JUMP JUMPDEST PUSH2 0xCB6 JUMP JUMPDEST PUSH1 0x40 MLOAD PUSH2 0x1FB SWAP2 SWAP1 PUSH2 0x140E JUMP JUMPDEST PUSH1 0x40 MLOAD DUP1 SWAP2 SUB SWAP1 RETURN JUMPDEST PUSH2 0x21E PUSH1 0x4 DUP1 CALLDATASIZE SUB DUP2 ADD SWAP1 PUSH2 0x219 SWAP2 SWAP1 PUSH2 0x1314 JUMP JUMPDEST PUSH2 0xD83 JUMP JUMPDEST PUSH1 0x40 MLOAD PUSH2 0x22B SWAP2 SWAP1 PUSH2 0x13D1 JUMP JUMPDEST PUSH1 0x40 MLOAD DUP1 SWAP2 SUB SWAP1 RETURN JUMPDEST PUSH2 0x24E PUSH1 0x4 DUP1 CALLDATASIZE SUB DUP2 ADD SWAP1 PUSH2 0x249 SWAP2 SWAP1 PUSH2 0x1289 JUMP JUMPDEST PUSH2 0x1128 JUMP JUMPDEST PUSH1 0x40 MLOAD PUSH2 0x25B SWAP2 SWAP1 PUSH2 0x140E JUMP JUMPDEST PUSH1 0x40 MLOAD DUP1 SWAP2 SUB SWAP1 RETURN JUMPDEST PUSH1 0x0 DUP1 SLOAD PUSH2 0x271 SWAP1 PUSH2 0x154A JUMP JUMPDEST DUP1 PUSH1 0x1F ADD PUSH1 0x20 DUP1 SWAP2 DIV MUL PUSH1 0x20 ADD PUSH1 0x40 MLOAD SWAP1 DUP2 ADD PUSH1 0x40 MSTORE DUP1 SWAP3 SWAP2 SWAP1 DUP2 DUP2 MSTORE PUSH1 0x20 ADD DUP3 DUP1 SLOAD PUSH2 0x29D SWAP1 PUSH2 0x154A JUMP JUMPDEST DUP1 ISZERO PUSH2 0x2EA JUMPI DUP1 PUSH1 0x1F LT PUSH2 0x2BF JUMPI PUSH2 0x100 DUP1 DUP4 SLOAD DIV MUL DUP4 MSTORE SWAP2 PUSH1 0x20 ADD SWAP2 PUSH2 0x2EA JUMP JUMPDEST DUP3 ADD SWAP2 SWAP1 PUSH1 0x0 MSTORE PUSH1 0x20 PUSH1 0x0 KECCAK256 SWAP1 JUMPDEST DUP2 SLOAD DUP2 MSTORE SWAP1 PUSH1 0x1 ADD SWAP1 PUSH1 0x20 ADD DUP1 DUP4 GT PUSH2 0x2CD JUMPI DUP3 SWAP1 SUB PUSH1 0x1F AND DUP3 ADD SWAP2 JUMPDEST POP POP POP POP POP DUP2 JUMP JUMPDEST PUSH1 0x1 DUP1 SLOAD PUSH2 0x2FF SWAP1 PUSH2 0x154A JUMP JUMPDEST DUP1 PUSH1 0x1F ADD PUSH1 0x20 DUP1 SWAP2 DIV MUL PUSH1 0x20 ADD PUSH1 0x40 MLOAD SWAP1 DUP2 ADD PUSH1 0x40 MSTORE DUP1 SWAP3 SWAP2 SWAP1 DUP2 DUP2 MSTORE PUSH1 0x20 ADD DUP3 DUP1 SLOAD PUSH2 0x32B SWAP1 PUSH2 0x154A JUMP JUMPDEST DUP1 ISZERO PUSH2 0x378 JUMPI DUP1 PUSH1 0x1F LT PUSH2 0x34D JUMPI PUSH2 0x100 DUP1 DUP4 SLOAD DIV MUL DUP4 MSTORE SWAP2 PUSH1 0x20 ADD SWAP2 PUSH2 0x378 JUMP JUMPDEST DUP3 ADD SWAP2 SWAP1 PUSH1 0x0 MSTORE PUSH1 0x20 PUSH1 0x0 KECCAK256 SWAP1 JUMPDEST DUP2 SLOAD DUP2 MSTORE SWAP1 PUSH1 0x1 ADD SWAP1 PUSH1 0x20 ADD DUP1 DUP4 GT PUSH2 0x35B JUMPI DUP3 SWAP1 SUB PUSH1 0x1F AND DUP3 ADD SWAP2 JUMPDEST POP POP POP POP POP DUP2 JUMP JUMPDEST PUSH1 0x0 PUSH2 0x3AE PUSH32 0xBEBAB622708CB58A1EB8765410E4987DC384FB53F5C50D3A2319F03ED1378B1F PUSH1 0x0 SHL PUSH2 0x1233 JUMP JUMPDEST PUSH2 0x3DA PUSH32 0x5AAD7E2216D50DD22BF93BEAB0D55EA27193DB1B154C2AC88B5183560461A937 PUSH1 0x0 SHL PUSH2 0x1233 JUMP JUMPDEST PUSH2 0x406 PUSH32 0x39FC586E03AFB058B21C37BA8DD9346F1DAD62A1AF709AE8CCDDD9A3F7A4508D PUSH1 0x0 SHL PUSH2 0x1233 JUMP JUMPDEST PUSH2 0x432 PUSH32 0xFD0EFE67C66588D01C391F2973BD4140EC894DF61FCF3A66026D1ED4725E7D7A PUSH1 0x0 SHL PUSH2 0x1233 JUMP JUMPDEST DUP2 PUSH1 0x5 PUSH1 0x0 CALLER PUSH20 0xFFFFFFFFFFFFFFFFFFFFFFFFFFFFFFFFFFFFFFFF AND PUSH20 0xFFFFFFFFFFFFFFFFFFFFFFFFFFFFFFFFFFFFFFFF AND DUP2 MSTORE PUSH1 0x20 ADD SWAP1 DUP2 MSTORE PUSH1 0x20 ADD PUSH1 0x0 KECCAK256 SLOAD LT ISZERO PUSH2 0x47E JUMPI PUSH1 0x0 DUP1 REVERT JUMPDEST PUSH2 0x4AA PUSH32 0xE139A84DA8F58B2EC58C1F414D3B7E3FD8C658282CE31CCFC173BCBE8D5C2579 PUSH1 0x0 SHL PUSH2 0x1233 JUMP JUMPDEST PUSH2 0x4D6 PUSH32 0x436C2B75446CF55EC1B96A4662FDFF6EC687B7AF1ADDA99BDEA12AD81A2DF4AB PUSH1 0x0 SHL PUSH2 0x1233 JUMP JUMPDEST PUSH2 0x502 PUSH32 0xD0D34CFB453F74E872F17A0E10147D290C22F0AFB99495107963ECE528218C0B PUSH1 0x0 SHL PUSH2 0x1233 JUMP JUMPDEST PUSH2 0x52E PUSH32 0xE5F0C31B47D4496BDBE05A5B2905CD8410D7ECE10CE94395E84C4396A6DCF93D PUSH1 0x0 SHL PUSH2 0x1233 JUMP JUMPDEST PUSH1 0x0 DUP3 GT PUSH2 0x53B JUMPI PUSH1 0x0 DUP1 REVERT JUMPDEST PUSH2 0x567 PUSH32 0xFF56F9AA99570FEDE4229536F1F122D14A28125B8B33790CBA7B23FDC937C935 PUSH1 0x0 SHL PUSH2 0x1233 JUMP JUMPDEST PUSH2 0x593 PUSH32 0xD42AF5FFB61B68F1015981DD63C3DF15956F0C507CB8622EB40F46A2C3359BA3 PUSH1 0x0 SHL PUSH2 0x1233 JUMP JUMPDEST PUSH2 0x5BF PUSH32 0xF3E618B68C8FDD2BBC8B38AD20E1C1D39258CC69BDF8FADDA3AF629B88B838E9 PUSH1 0x0 SHL PUSH2 0x1233 JUMP JUMPDEST DUP2 PUSH1 0x6 PUSH1 0x0 CALLER PUSH20 0xFFFFFFFFFFFFFFFFFFFFFFFFFFFFFFFFFFFFFFFF AND PUSH20 0xFFFFFFFFFFFFFFFFFFFFFFFFFFFFFFFFFFFFFFFF AND DUP2 MSTORE PUSH1 0x20 ADD SWAP1 DUP2 MSTORE PUSH1 0x20 ADD PUSH1 0x0 KECCAK256 PUSH1 0x0 DUP6 PUSH20 0xFFFFFFFFFFFFFFFFFFFFFFFFFFFFFFFFFFFFFFFF AND PUSH20 0xFFFFFFFFFFFFFFFFFFFFFFFFFFFFFFFFFFFFFFFF AND DUP2 MSTORE PUSH1 0x20 ADD SWAP1 DUP2 MSTORE PUSH1 0x20 ADD PUSH1 0x0 KECCAK256 DUP2 SWAP1 SSTORE POP PUSH2 0x66C PUSH32 0xFB950642280781AD33B7B4FA474998D7FFCA76804BA3A5B71F23B08CDB708B7 PUSH1 0x0 SHL PUSH2 0x1233 JUMP JUMPDEST PUSH2 0x698 PUSH32 0x72A3C49419048CE1EA2E62B6F282984632C24A81B997162968A95B03123E372 PUSH1 0x0 SHL PUSH2 0x1233 JUMP JUMPDEST DUP3 PUSH20 0xFFFFFFFFFFFFFFFFFFFFFFFFFFFFFFFFFFFFFFFF AND CALLER PUSH20 0xFFFFFFFFFFFFFFFFFFFFFFFFFFFFFFFFFFFFFFFF AND PUSH32 0x8C5BE1E5EBEC7D5BD14F71427D1E84F3DD0314C0F7B2291E5B200AC8C7C3B925 DUP5 PUSH1 0x40 MLOAD PUSH2 0x6F5 SWAP2 SWAP1 PUSH2 0x140E JUMP JUMPDEST PUSH1 0x40 MLOAD DUP1 SWAP2 SUB SWAP1 LOG3 PUSH2 0x729 PUSH32 0x3C3941758C8F80DF0E41A751D44AD5C3EED46A75FB53FF7FB11508CA2A4B59AF PUSH1 0x0 SHL PUSH2 0x1233 JUMP JUMPDEST PUSH2 0x755 PUSH32 0xCA609AE588C30C2EB8040C74BD89CDEF2932391CE9EFBE36BFCB624B0E593079 PUSH1 0x0 SHL PUSH2 0x1233 JUMP JUMPDEST PUSH1 0x1 SWAP1 POP SWAP3 SWAP2 POP POP JUMP JUMPDEST PUSH1 0x3 SLOAD DUP2 JUMP JUMPDEST PUSH1 0x0 PUSH2 0x793 PUSH32 0x7831D576AF861568B5E64ACD47C96E3582382A04A901771866EA5E1F03558E25 PUSH1 0x0 SHL PUSH2 0x1233 JUMP JUMPDEST PUSH2 0x7BF PUSH32 0xE79226EBA20069B2AAA74E97C677A29136338B12D8CB69751FE8923515173B68 PUSH1 0x0 SHL PUSH2 0x1233 JUMP JUMPDEST PUSH2 0x7EB PUSH32 0x73C6FA906A8D58CF879E10773482581250EC220DAA44C42B0E326097CD1C05A5 PUSH1 0x0 SHL PUSH2 0x1233 JUMP JUMPDEST PUSH2 0x817 PUSH32 0xD7FCCA6E076A3C29D2AB4EC64DCF3835AACE91C7D92C970EFD0F32B00A90149A PUSH1 0x0 SHL PUSH2 0x1233 JUMP JUMPDEST DUP2 PUSH1 0x6 PUSH1 0x0 DUP7 PUSH20 0xFFFFFFFFFFFFFFFFFFFFFFFFFFFFFFFFFFFFFFFF AND PUSH20 0xFFFFFFFFFFFFFFFFFFFFFFFFFFFFFFFFFFFFFFFF AND DUP2 MSTORE PUSH1 0x20 ADD SWAP1 DUP2 MSTORE PUSH1 0x20 ADD PUSH1 0x0 KECCAK256 PUSH1 0x0 DUP6 PUSH20 0xFFFFFFFFFFFFFFFFFFFFFFFFFFFFFFFFFFFFFFFF AND PUSH20 0xFFFFFFFFFFFFFFFFFFFFFFFFFFFFFFFFFFFFFFFF AND DUP2 MSTORE PUSH1 0x20 ADD SWAP1 DUP2 MSTORE PUSH1 0x20 ADD PUSH1 0x0 KECCAK256 SLOAD LT ISZERO PUSH2 0x8A0 JUMPI PUSH1 0x0 DUP1 REVERT JUMPDEST PUSH2 0x8CC PUSH32 0x4B1BFBCF17DE7F291283BD907E6BCD90627D80A45C865E7A58E19C727B7BE4DD PUSH1 0x0 SHL PUSH2 0x1233 JUMP JUMPDEST PUSH2 0x8F8 PUSH32 0x7612101BC40AD79594697719A85894C2A9925568004DD3BCD9F2E83536407CD6 PUSH1 0x0 SHL PUSH2 0x1233 JUMP JUMPDEST PUSH2 0x924 PUSH32 0x320C31FB2386BD8524338D0A40C449BD408D458D5300C11D8C12F4E294FE6C84 PUSH1 0x0 SHL PUSH2 0x1233 JUMP JUMPDEST PUSH2 0x950 PUSH32 0x7F02873F2250CA63311FB7E1D15E4D4094360C4486D6858E597BC91F36E469B7 PUSH1 0x0 SHL PUSH2 0x1233 JUMP JUMPDEST DUP2 PUSH1 0x5 PUSH1 0x0 DUP7 PUSH20 0xFFFFFFFFFFFFFFFFFFFFFFFFFFFFFFFFFFFFFFFF AND PUSH20 0xFFFFFFFFFFFFFFFFFFFFFFFFFFFFFFFFFFFFFFFF AND DUP2 MSTORE PUSH1 0x20 ADD SWAP1 DUP2 MSTORE PUSH1 0x20 ADD PUSH1 0x0 KECCAK256 SLOAD LT ISZERO PUSH2 0x99C JUMPI PUSH1 0x0 DUP1 REVERT JUMPDEST PUSH2 0x9C8 PUSH32 0xCFAD368EA9A93AFE446E7697F35707BC5DAA4B866ABA52933D9A1A0C27A20AFF PUSH1 0x0 SHL PUSH2 0x1233 JUMP JUMPDEST PUSH2 0x9F4 PUSH32 0x726E1BBA8FA7BE39BF95C2132EEACEEA08BDB90A6CED558F1C7B1F82C01561B1 PUSH1 0x0 SHL PUSH2 0x1233 JUMP JUMPDEST PUSH2 0xA20 PUSH32 0x7CFC0B5DD618F3FBE94FAD0455143E2CF9EDE5D8CF19AE7945A4EA4A3DC65D0F PUSH1 0x0 SHL PUSH2 0x1233 JUMP JUMPDEST DUP2 PUSH1 0x5 PUSH1 0x0 DUP7 PUSH20 0xFFFFFFFFFFFFFFFFFFFFFFFFFFFFFFFFFFFFFFFF AND PUSH20 0xFFFFFFFFFFFFFFFFFFFFFFFFFFFFFFFFFFFFFFFF AND DUP2 MSTORE PUSH1 0x20 ADD SWAP1 DUP2 MSTORE PUSH1 0x20 ADD PUSH1 0x0 KECCAK256 PUSH1 0x0 DUP3 DUP3 SLOAD PUSH2 0xA6F SWAP2 SWAP1 PUSH2 0x149B JUMP JUMPDEST SWAP3 POP POP DUP2 SWAP1 SSTORE POP PUSH2 0xAA2 PUSH32 0x227DD8E16FFF50D74A5C2890D8A21BBF55FD5C5E9F3A40110A4E7D00AF5811CD PUSH1 0x0 SHL PUSH2 0x1233 JUMP JUMPDEST PUSH2 0xACE PUSH32 0x93D9A282078AF35BC7CD05EC25A6DC58D68DEA67AE3D85C9EE6317131E9C7F99 PUSH1 0x0 SHL PUSH2 0x1233 JUMP JUMPDEST DUP2 PUSH1 0x5 PUSH1 0x0 DUP6 PUSH20 0xFFFFFFFFFFFFFFFFFFFFFFFFFFFFFFFFFFFFFFFF AND PUSH20 0xFFFFFFFFFFFFFFFFFFFFFFFFFFFFFFFFFFFFFFFF AND DUP2 MSTORE PUSH1 0x20 ADD SWAP1 DUP2 MSTORE PUSH1 0x20 ADD PUSH1 0x0 KECCAK256 PUSH1 0x0 DUP3 DUP3 SLOAD PUSH2 0xB1D SWAP2 SWAP1 PUSH2 0x1445 JUMP JUMPDEST SWAP3 POP POP DUP2 SWAP1 SSTORE POP PUSH2 0xB50 PUSH32 0xE630F7D1BAEA2431FDEFE57F3CAFC8AAE9B6A5E9C41BEFBD32446B64BC29F7D8 PUSH1 0x0 SHL PUSH2 0x1233 JUMP JUMPDEST PUSH2 0xB7C PUSH32 0xAFF3AEFF76E75A70EB0CFC861E487F238C7D1C35D4D865D8E8AC0C95B876C021 PUSH1 0x0 SHL PUSH2 0x1233 JUMP JUMPDEST DUP2 PUSH1 0x6 PUSH1 0x0 DUP7 PUSH20 0xFFFFFFFFFFFFFFFFFFFFFFFFFFFFFFFFFFFFFFFF AND PUSH20 0xFFFFFFFFFFFFFFFFFFFFFFFFFFFFFFFFFFFFFFFF AND DUP2 MSTORE PUSH1 0x20 ADD SWAP1 DUP2 MSTORE PUSH1 0x20 ADD PUSH1 0x0 KECCAK256 PUSH1 0x0 DUP6 PUSH20 0xFFFFFFFFFFFFFFFFFFFFFFFFFFFFFFFFFFFFFFFF AND PUSH20 0xFFFFFFFFFFFFFFFFFFFFFFFFFFFFFFFFFFFFFFFF AND DUP2 MSTORE PUSH1 0x20 ADD SWAP1 DUP2 MSTORE PUSH1 0x20 ADD PUSH1 0x0 KECCAK256 PUSH1 0x0 DUP3 DUP3 SLOAD PUSH2 0xC08 SWAP2 SWAP1 PUSH2 0x149B JUMP JUMPDEST SWAP3 POP POP DUP2 SWAP1 SSTORE POP PUSH2 0xC3B PUSH32 0x7C610DA1F0A8229FE1B951018E1B16FAD2BD4DED6381D2B870FC0BF774CA64F8 PUSH1 0x0 SHL PUSH2 0x1233 JUMP JUMPDEST PUSH2 0xC67 PUSH32 0x93474DD6115323A533FBD19F236A484CA268265EE353F13844115DF796699844 PUSH1 0x0 SHL PUSH2 0x1233 JUMP JUMPDEST PUSH1 0x1 SWAP1 POP SWAP4 SWAP3 POP POP POP JUMP JUMPDEST PUSH1 0x5 PUSH1 0x20 MSTORE DUP1 PUSH1 0x0 MSTORE PUSH1 0x40 PUSH1 0x0 KECCAK256 PUSH1 0x0 SWAP2 POP SWAP1 POP SLOAD DUP2 JUMP JUMPDEST PUSH1 0x2 SLOAD DUP2 JUMP JUMPDEST PUSH1 0x4 PUSH1 0x0 SWAP1 SLOAD SWAP1 PUSH2 0x100 EXP SWAP1 DIV PUSH20 0xFFFFFFFFFFFFFFFFFFFFFFFFFFFFFFFFFFFFFFFF AND DUP2 JUMP JUMPDEST PUSH1 0x0 PUSH2 0xCE4 PUSH32 0x5FD314E44B5F61EB3548F826133AC4A32CCCE0825D042EF539CEAC1398D609F5 PUSH1 0x0 SHL PUSH2 0x1233 JUMP JUMPDEST PUSH2 0xD10 PUSH32 0x5FF202600FC4CDA142511AA8BA28E3341CDB57871D01AFFF0CBFF2A87637F326 PUSH1 0x0 SHL PUSH2 0x1233 JUMP JUMPDEST PUSH2 0xD3C PUSH32 0x508509D0F7D245D51F8155DB77836F30DB20B66193662500AEC9E73D46E3D65B PUSH1 0x0 SHL PUSH2 0x1233 JUMP JUMPDEST PUSH1 0x5 PUSH1 0x0 DUP4 PUSH20 0xFFFFFFFFFFFFFFFFFFFFFFFFFFFFFFFFFFFFFFFF AND PUSH20 0xFFFFFFFFFFFFFFFFFFFFFFFFFFFFFFFFFFFFFFFF AND DUP2 MSTORE PUSH1 0x20 ADD SWAP1 DUP2 MSTORE PUSH1 0x20 ADD PUSH1 0x0 KECCAK256 SLOAD SWAP1 POP SWAP2 SWAP1 POP JUMP JUMPDEST PUSH1 0x0 PUSH2 0xDB1 PUSH32 0xFA8157E2BC1E1A8B3D7C3CAF3BFBB0B6C0438239CB4BA7A7BC745C1BD2CB28D PUSH1 0x0 SHL PUSH2 0x1233 JUMP JUMPDEST PUSH2 0xDDD PUSH32 0x89EC3D5FA47518AB656C82787CFEB8D4CCCDB94B8B5E82442FDC5A699ABF8105 PUSH1 0x0 SHL PUSH2 0x1233 JUMP JUMPDEST PUSH2 0xE09 PUSH32 0x67A3DA2CE4C4EB9FA0D0033EF5E09BDC671982053C6E8213E6B6CFCE3BD651BF PUSH1 0x0 SHL PUSH2 0x1233 JUMP JUMPDEST PUSH2 0xE35 PUSH32 0x4FDCBFDB329B93CBB587CFA862039B4B1D4B7292F17534E48C2557B72CDCF3B1 PUSH1 0x0 SHL PUSH2 0x1233 JUMP JUMPDEST DUP2 PUSH1 0x5 PUSH1 0x0 CALLER PUSH20 0xFFFFFFFFFFFFFFFFFFFFFFFFFFFFFFFFFFFFFFFF AND PUSH20 0xFFFFFFFFFFFFFFFFFFFFFFFFFFFFFFFFFFFFFFFF AND DUP2 MSTORE PUSH1 0x20 ADD SWAP1 DUP2 MSTORE PUSH1 0x20 ADD PUSH1 0x0 KECCAK256 SLOAD LT ISZERO PUSH2 0xE81 JUMPI PUSH1 0x0 DUP1 REVERT JUMPDEST PUSH2 0xEAD PUSH32 0x127321AC9F0D96D0293A1F38C24730E7CF498807E2E18A1E32228832B48A7E0 PUSH1 0x0 SHL PUSH2 0x1233 JUMP JUMPDEST PUSH2 0xED9 PUSH32 0xDC8DB3295C90FF8AC4E72772FC63B91713A653E6343F7E448683AE5F45AC02CB PUSH1 0x0 SHL PUSH2 0x1233 JUMP JUMPDEST PUSH2 0xF05 PUSH32 0x75B7FABE27E2F196BA4EC7BA16756EC0281277B92CC41819BC01AA0D94430476 PUSH1 0x0 SHL PUSH2 0x1233 JUMP JUMPDEST DUP2 PUSH1 0x5 PUSH1 0x0 DUP6 PUSH20 0xFFFFFFFFFFFFFFFFFFFFFFFFFFFFFFFFFFFFFFFF AND PUSH20 0xFFFFFFFFFFFFFFFFFFFFFFFFFFFFFFFFFFFFFFFF AND DUP2 MSTORE PUSH1 0x20 ADD SWAP1 DUP2 MSTORE PUSH1 0x20 ADD PUSH1 0x0 KECCAK256 PUSH1 0x0 DUP3 DUP3 SLOAD PUSH2 0xF54 SWAP2 SWAP1 PUSH2 0x1445 JUMP JUMPDEST SWAP3 POP POP DUP2 SWAP1 SSTORE POP PUSH2 0xF87 PUSH32 0x1ED0D3E82AF38F585A0F6F5609E9EB3C8D918E41CD753F6F7F167EE1620FC969 PUSH1 0x0 SHL PUSH2 0x1233 JUMP JUMPDEST PUSH2 0xFB3 PUSH32 0x9461B8AB0A957DB919D73D69C5935CE164ECCB69025B13C2FDFD2678BA9E70A7 PUSH1 0x0 SHL PUSH2 0x1233 JUMP JUMPDEST DUP2 PUSH1 0x5 PUSH1 0x0 CALLER PUSH20 0xFFFFFFFFFFFFFFFFFFFFFFFFFFFFFFFFFFFFFFFF AND PUSH20 0xFFFFFFFFFFFFFFFFFFFFFFFFFFFFFFFFFFFFFFFF AND DUP2 MSTORE PUSH1 0x20 ADD SWAP1 DUP2 MSTORE PUSH1 0x20 ADD PUSH1 0x0 KECCAK256 PUSH1 0x0 DUP3 DUP3 SLOAD PUSH2 0x1002 SWAP2 SWAP1 PUSH2 0x149B JUMP JUMPDEST SWAP3 POP POP DUP2 SWAP1 SSTORE POP PUSH2 0x1035 PUSH32 0xAAC08058B7FCFEC0FA99DEDE83B142E101657E97C500DB6A6330A5F81FB8DDEE PUSH1 0x0 SHL PUSH2 0x1233 JUMP JUMPDEST PUSH2 0x1061 PUSH32 0xB348E05A046327A1B9B0AA11E83991F7CDF4060D7C565EAB2D4F4763C39B497A PUSH1 0x0 SHL PUSH2 0x1233 JUMP JUMPDEST DUP3 PUSH20 0xFFFFFFFFFFFFFFFFFFFFFFFFFFFFFFFFFFFFFFFF AND CALLER PUSH20 0xFFFFFFFFFFFFFFFFFFFFFFFFFFFFFFFFFFFFFFFF AND PUSH32 0xDDF252AD1BE2C89B69C2B068FC378DAA952BA7F163C4A11628F55A4DF523B3EF DUP5 PUSH1 0x40 MLOAD PUSH2 0x10BE SWAP2 SWAP1 PUSH2 0x140E JUMP JUMPDEST PUSH1 0x40 MLOAD DUP1 SWAP2 SUB SWAP1 LOG3 PUSH2 0x10F2 PUSH32 0x246365AB12E82FD24C290383AA3E2E9C7B69FCBEF09EAAD7381B0C22046B4488 PUSH1 0x0 SHL PUSH2 0x1233 JUMP JUMPDEST PUSH2 0x111E PUSH32 0xA30FFEBE28D5BD57D953A3EDE94CCB6022AFE40C986C266B0BCFF3D899CCF38E PUSH1 0x0 SHL PUSH2 0x1233 JUMP JUMPDEST PUSH1 0x1 SWAP1 POP SWAP3 SWAP2 POP POP JUMP JUMPDEST PUSH1 0x0 PUSH2 0x1156 PUSH32 0x62BD97270041134D24AAA8B1084AA775A91AA44F389916F5AEB9D79E558CBE7E PUSH1 0x0 SHL PUSH2 0x1233 JUMP JUMPDEST PUSH2 0x1182 PUSH32 0x30C228534B679C7A894CF861185F4B08B8A5354535418DC792A6A16C57376796 PUSH1 0x0 SHL PUSH2 0x1233 JUMP JUMPDEST PUSH2 0x11AE PUSH32 0xD26DE2D9114EF91EBBDB5FE877C5D1F9AA9DD6BC98887E878C4BBDFD3D300393 PUSH1 0x0 SHL PUSH2 0x1233 JUMP JUMPDEST PUSH1 0x6 PUSH1 0x0 DUP5 PUSH20 0xFFFFFFFFFFFFFFFFFFFFFFFFFFFFFFFFFFFFFFFF AND PUSH20 0xFFFFFFFFFFFFFFFFFFFFFFFFFFFFFFFFFFFFFFFF AND DUP2 MSTORE PUSH1 0x20 ADD SWAP1 DUP2 MSTORE PUSH1 0x20 ADD PUSH1 0x0 KECCAK256 PUSH1 0x0 DUP4 PUSH20 0xFFFFFFFFFFFFFFFFFFFFFFFFFFFFFFFFFFFFFFFF AND PUSH20 0xFFFFFFFFFFFFFFFFFFFFFFFFFFFFFFFFFFFFFFFF AND DUP2 MSTORE PUSH1 0x20 ADD SWAP1 DUP2 MSTORE PUSH1 0x20 ADD PUSH1 0x0 KECCAK256 SLOAD SWAP1 POP SWAP3 SWAP2 POP POP JUMP JUMPDEST POP JUMP JUMPDEST PUSH1 0x0 DUP2 CALLDATALOAD SWAP1 POP PUSH2 0x1245 DUP2 PUSH2 0x15EB JUMP JUMPDEST SWAP3 SWAP2 POP POP JUMP JUMPDEST PUSH1 0x0 DUP2 CALLDATALOAD SWAP1 POP PUSH2 0x125A DUP2 PUSH2 0x1602 JUMP JUMPDEST SWAP3 SWAP2 POP POP JUMP JUMPDEST PUSH1 0x0 PUSH1 0x20 DUP3 DUP5 SUB SLT ISZERO PUSH2 0x1272 JUMPI PUSH1 0x0 DUP1 REVERT JUMPDEST PUSH1 0x0 PUSH2 0x1280 DUP5 DUP3 DUP6 ADD PUSH2 0x1236 JUMP JUMPDEST SWAP2 POP POP SWAP3 SWAP2 POP POP JUMP JUMPDEST PUSH1 0x0 DUP1 PUSH1 0x40 DUP4 DUP6 SUB SLT ISZERO PUSH2 0x129C JUMPI PUSH1 0x0 DUP1 REVERT JUMPDEST PUSH1 0x0 PUSH2 0x12AA DUP6 DUP3 DUP7 ADD PUSH2 0x1236 JUMP JUMPDEST SWAP3 POP POP PUSH1 0x20 PUSH2 0x12BB DUP6 DUP3 DUP7 ADD PUSH2 0x1236 JUMP JUMPDEST SWAP2 POP POP SWAP3 POP SWAP3 SWAP1 POP JUMP JUMPDEST PUSH1 0x0 DUP1 PUSH1 0x0 PUSH1 0x60 DUP5 DUP7 SUB SLT ISZERO PUSH2 0x12DA JUMPI PUSH1 0x0 DUP1 REVERT JUMPDEST PUSH1 0x0 PUSH2 0x12E8 DUP7 DUP3 DUP8 ADD PUSH2 0x1236 JUMP JUMPDEST SWAP4 POP POP PUSH1 0x20 PUSH2 0x12F9 DUP7 DUP3 DUP8 ADD PUSH2 0x1236 JUMP JUMPDEST SWAP3 POP POP PUSH1 0x40 PUSH2 0x130A DUP7 DUP3 DUP8 ADD PUSH2 0x124B JUMP JUMPDEST SWAP2 POP POP SWAP3 POP SWAP3 POP SWAP3 JUMP JUMPDEST PUSH1 0x0 DUP1 PUSH1 0x40 DUP4 DUP6 SUB SLT ISZERO PUSH2 0x1327 JUMPI PUSH1 0x0 DUP1 REVERT JUMPDEST PUSH1 0x0 PUSH2 0x1335 DUP6 DUP3 DUP7 ADD PUSH2 0x1236 JUMP JUMPDEST SWAP3 POP POP PUSH1 0x20 PUSH2 0x1346 DUP6 DUP3 DUP7 ADD PUSH2 0x124B JUMP JUMPDEST SWAP2 POP POP SWAP3 POP SWAP3 SWAP1 POP JUMP JUMPDEST PUSH2 0x1359 DUP2 PUSH2 0x14CF JUMP JUMPDEST DUP3 MSTORE POP POP JUMP JUMPDEST PUSH2 0x1368 DUP2 PUSH2 0x14E1 JUMP JUMPDEST DUP3 MSTORE POP POP JUMP JUMPDEST PUSH1 0x0 PUSH2 0x1379 DUP3 PUSH2 0x1429 JUMP JUMPDEST PUSH2 0x1383 DUP2 DUP6 PUSH2 0x1434 JUMP JUMPDEST SWAP4 POP PUSH2 0x1393 DUP2 DUP6 PUSH1 0x20 DUP7 ADD PUSH2 0x1517 JUMP JUMPDEST PUSH2 0x139C DUP2 PUSH2 0x15DA JUMP JUMPDEST DUP5 ADD SWAP2 POP POP SWAP3 SWAP2 POP POP JUMP JUMPDEST PUSH2 0x13B0 DUP2 PUSH2 0x150D JUMP JUMPDEST DUP3 MSTORE POP POP JUMP JUMPDEST PUSH1 0x0 PUSH1 0x20 DUP3 ADD SWAP1 POP PUSH2 0x13CB PUSH1 0x0 DUP4 ADD DUP5 PUSH2 0x1350 JUMP JUMPDEST SWAP3 SWAP2 POP POP JUMP JUMPDEST PUSH1 0x0 PUSH1 0x20 DUP3 ADD SWAP1 POP PUSH2 0x13E6 PUSH1 0x0 DUP4 ADD DUP5 PUSH2 0x135F JUMP JUMPDEST SWAP3 SWAP2 POP POP JUMP JUMPDEST PUSH1 0x0 PUSH1 0x20 DUP3 ADD SWAP1 POP DUP2 DUP2 SUB PUSH1 0x0 DUP4 ADD MSTORE PUSH2 0x1406 DUP2 DUP5 PUSH2 0x136E JUMP JUMPDEST SWAP1 POP SWAP3 SWAP2 POP POP JUMP JUMPDEST PUSH1 0x0 PUSH1 0x20 DUP3 ADD SWAP1 POP PUSH2 0x1423 PUSH1 0x0 DUP4 ADD DUP5 PUSH2 0x13A7 JUMP JUMPDEST SWAP3 SWAP2 POP POP JUMP JUMPDEST PUSH1 0x0 DUP2 MLOAD SWAP1 POP SWAP2 SWAP1 POP JUMP JUMPDEST PUSH1 0x0 DUP3 DUP3 MSTORE PUSH1 0x20 DUP3 ADD SWAP1 POP SWAP3 SWAP2 POP POP JUMP JUMPDEST PUSH1 0x0 PUSH2 0x1450 DUP3 PUSH2 0x150D JUMP JUMPDEST SWAP2 POP PUSH2 0x145B DUP4 PUSH2 0x150D JUMP JUMPDEST SWAP3 POP DUP3 PUSH32 0xFFFFFFFFFFFFFFFFFFFFFFFFFFFFFFFFFFFFFFFFFFFFFFFFFFFFFFFFFFFFFFFF SUB DUP3 GT ISZERO PUSH2 0x1490 JUMPI PUSH2 0x148F PUSH2 0x157C JUMP JUMPDEST JUMPDEST DUP3 DUP3 ADD SWAP1 POP SWAP3 SWAP2 POP POP JUMP JUMPDEST PUSH1 0x0 PUSH2 0x14A6 DUP3 PUSH2 0x150D JUMP JUMPDEST SWAP2 POP PUSH2 0x14B1 DUP4 PUSH2 0x150D JUMP JUMPDEST SWAP3 POP DUP3 DUP3 LT ISZERO PUSH2 0x14C4 JUMPI PUSH2 0x14C3 PUSH2 0x157C JUMP JUMPDEST JUMPDEST DUP3 DUP3 SUB SWAP1 POP SWAP3 SWAP2 POP POP JUMP JUMPDEST PUSH1 0x0 PUSH2 0x14DA DUP3 PUSH2 0x14ED JUMP JUMPDEST SWAP1 POP SWAP2 SWAP1 POP JUMP JUMPDEST PUSH1 0x0 DUP2 ISZERO ISZERO SWAP1 POP SWAP2 SWAP1 POP JUMP JUMPDEST PUSH1 0x0 PUSH20 0xFFFFFFFFFFFFFFFFFFFFFFFFFFFFFFFFFFFFFFFF DUP3 AND SWAP1 POP SWAP2 SWAP1 POP JUMP JUMPDEST PUSH1 0x0 DUP2 SWAP1 POP SWAP2 SWAP1 POP JUMP JUMPDEST PUSH1 0x0 JUMPDEST DUP4 DUP2 LT ISZERO PUSH2 0x1535 JUMPI DUP1 DUP3 ADD MLOAD DUP2 DUP5 ADD MSTORE PUSH1 0x20 DUP2 ADD SWAP1 POP PUSH2 0x151A JUMP JUMPDEST DUP4 DUP2 GT ISZERO PUSH2 0x1544 JUMPI PUSH1 0x0 DUP5 DUP5 ADD MSTORE JUMPDEST POP POP POP POP JUMP JUMPDEST PUSH1 0x0 PUSH1 0x2 DUP3 DIV SWAP1 POP PUSH1 0x1 DUP3 AND DUP1 PUSH2 0x1562 JUMPI PUSH1 0x7F DUP3 AND SWAP2 POP JUMPDEST PUSH1 0x20 DUP3 LT DUP2 EQ ISZERO PUSH2 0x1576 JUMPI PUSH2 0x1575 PUSH2 0x15AB JUMP JUMPDEST JUMPDEST POP SWAP2 SWAP1 POP JUMP JUMPDEST PUSH32 0x4E487B7100000000000000000000000000000000000000000000000000000000 PUSH1 0x0 MSTORE PUSH1 0x11 PUSH1 0x4 MSTORE PUSH1 0x24 PUSH1 0x0 REVERT JUMPDEST PUSH32 0x4E487B7100000000000000000000000000000000000000000000000000000000 PUSH1 0x0 MSTORE PUSH1 0x22 PUSH1 0x4 MSTORE PUSH1 0x24 PUSH1 0x0 REVERT JUMPDEST PUSH1 0x0 PUSH1 0x1F NOT PUSH1 0x1F DUP4 ADD AND SWAP1 POP SWAP2 SWAP1 POP JUMP JUMPDEST PUSH2 0x15F4 DUP2 PUSH2 0x14CF JUMP JUMPDEST DUP2 EQ PUSH2 0x15FF JUMPI PUSH1 0x0 DUP1 REVERT JUMPDEST POP JUMP JUMPDEST PUSH2 0x160B DUP2 PUSH2 0x150D JUMP JUMPDEST DUP2 EQ PUSH2 0x1616 JUMPI PUSH1 0x0 DUP1 REVERT JUMPDEST POP JUMP INVALID LOG2 PUSH5 0x6970667358 0x22 SLT KECCAK256 XOR PUSH14 0x46126D32E1304149DF52BC3C38D5 MULMOD 0xF DUP12 DIV LOG1 0xF8 PUSH3 0xEFCB0 0xB5 MSTORE INVALID RETURN 0xC3 0xF8 PUSH5 0x736F6C6343 STOP ADDMOD DIV STOP CALLER "
        },
        "methodIdentifiers": {
          "allowance(address,address)": "dd62ed3e",
          "approve(address,uint256)": "095ea7b3",
          "balanceOf(address)": "70a08231",
          "balances(address)": "27e235e3",
          "decimals()": "313ce567",
          "founder()": "4d853ee5",
          "name()": "06fdde03",
          "sumbol()": "09055723",
          "totalSupply()": "18160ddd",
          "transfer(address,uint256)": "a9059cbb",
          "transferFrom(address,address,uint256)": "23b872dd"
        }
      }
    }
  }
}