{
  "_format": "hh-sol-artifact-1",
  "contractName": "NutBux",
  "sourceName": "contracts/erc20.sol",
  "abi": [
    {
      "inputs": [],
      "stateMutability": "nonpayable",
      "type": "constructor"
    },
    {
      "anonymous": false,
      "inputs": [
        {
          "indexed": true,
          "internalType": "address",
          "name": "tokenOwner",
          "type": "address"
        },
        {
          "indexed": true,
          "internalType": "address",
          "name": "spender",
          "type": "address"
        },
        {
          "indexed": false,
          "internalType": "uint256",
          "name": "tokens",
          "type": "uint256"
        }
      ],
      "name": "Approval",
      "type": "event"
    },
    {
      "anonymous": false,
      "inputs": [
        {
          "indexed": true,
          "internalType": "address",
          "name": "from",
          "type": "address"
        },
        {
          "indexed": true,
          "internalType": "address",
          "name": "to",
          "type": "address"
        },
        {
          "indexed": false,
          "internalType": "uint256",
          "name": "tokens",
          "type": "uint256"
        }
      ],
      "name": "Transfer",
      "type": "event"
    },
    {
      "inputs": [
        {
          "internalType": "address",
          "name": "tokenOwner",
          "type": "address"
        },
        {
          "internalType": "address",
          "name": "spender",
          "type": "address"
        }
      ],
      "name": "allowance",
      "outputs": [
        {
          "internalType": "uint256",
          "name": "",
          "type": "uint256"
        }
      ],
      "stateMutability": "view",
      "type": "function"
    },
    {
      "inputs": [
        {
          "internalType": "address",
          "name": "spender",
          "type": "address"
        },
        {
          "internalType": "uint256",
          "name": "tokens",
          "type": "uint256"
        }
      ],
      "name": "approve",
      "outputs": [
        {
          "internalType": "bool",
          "name": "success",
          "type": "bool"
        }
      ],
      "stateMutability": "nonpayable",
      "type": "function"
    },
    {
      "inputs": [
        {
          "internalType": "address",
          "name": "tokenOwner",
          "type": "address"
        }
      ],
      "name": "balanceOf",
      "outputs": [
        {
          "internalType": "uint256",
          "name": "balance",
          "type": "uint256"
        }
      ],
      "stateMutability": "view",
      "type": "function"
    },
    {
      "inputs": [
        {
          "internalType": "address",
          "name": "",
          "type": "address"
        }
      ],
      "name": "balances",
      "outputs": [
        {
          "internalType": "uint256",
          "name": "",
          "type": "uint256"
        }
      ],
      "stateMutability": "view",
      "type": "function"
    },
    {
      "inputs": [],
      "name": "decimals",
      "outputs": [
        {
          "internalType": "uint256",
          "name": "",
          "type": "uint256"
        }
      ],
      "stateMutability": "view",
      "type": "function"
    },
    {
      "inputs": [],
      "name": "founder",
      "outputs": [
        {
          "internalType": "address",
          "name": "",
          "type": "address"
        }
      ],
      "stateMutability": "view",
      "type": "function"
    },
    {
      "inputs": [],
      "name": "name",
      "outputs": [
        {
          "internalType": "string",
          "name": "",
          "type": "string"
        }
      ],
      "stateMutability": "view",
      "type": "function"
    },
    {
      "inputs": [],
      "name": "sumbol",
      "outputs": [
        {
          "internalType": "string",
          "name": "",
          "type": "string"
        }
      ],
      "stateMutability": "view",
      "type": "function"
    },
    {
      "inputs": [],
      "name": "totalSupply",
      "outputs": [
        {
          "internalType": "uint256",
          "name": "",
          "type": "uint256"
        }
      ],
      "stateMutability": "view",
      "type": "function"
    },
    {
      "inputs": [
        {
          "internalType": "address",
          "name": "to",
          "type": "address"
        },
        {
          "internalType": "uint256",
          "name": "tokens",
          "type": "uint256"
        }
      ],
      "name": "transfer",
      "outputs": [
        {
          "internalType": "bool",
          "name": "success",
          "type": "bool"
        }
      ],
      "stateMutability": "nonpayable",
      "type": "function"
    },
    {
      "inputs": [
        {
          "internalType": "address",
          "name": "from",
          "type": "address"
        },
        {
          "internalType": "address",
          "name": "to",
          "type": "address"
        },
        {
          "internalType": "uint256",
          "name": "tokens",
          "type": "uint256"
        }
      ],
      "name": "transferFrom",
      "outputs": [
        {
          "internalType": "bool",
          "name": "success",
          "type": "bool"
        }
      ],
      "stateMutability": "nonpayable",
      "type": "function"
    }
  ],
  "bytecode": "0x60806040526040518060400160405280600981526020017f5065616e757442757800000000000000000000000000000000000000000000008152506000908051906020019062000051929190620002db565b506040518060400160405280600481526020017f5042555800000000000000000000000000000000000000000000000000000000815250600190805190602001906200009f929190620002db565b506000600255348015620000b257600080fd5b50620000e77ffeb149b1ecbf870a404fba82f48122ff2c50022112f2bf6d09d62d3c9627132a60001b620002d860201b60201c565b6200011b7f1bdc51f2051c1281367dc7bbd2ec80fb5a91b4fb2a01d40a97365670672d6b3360001b620002d860201b60201c565b6200014f7fb3a778341c61eea3328c49ec56dbc452a5818de1d1e3f294543cb2138d22f6e960001b620002d860201b60201c565b620f42406003819055506200018d7f4f3dd15e163a6d1f688bd001ebba6800b19164924f2574aa5439c82e6f7eeda860001b620002d860201b60201c565b620001c17fdb3785c7d1af5069ef50ab53e39b8242048292002ccf9cc876274bc324bc3d6060001b620002d860201b60201c565b33600460006101000a81548173ffffffffffffffffffffffffffffffffffffffff021916908373ffffffffffffffffffffffffffffffffffffffff160217905550620002367fc6b1c60753fa4ca2ffc4a6dc9b3e2d412c3df7c3ebc9879c4735a9c7345fe83d60001b620002d860201b60201c565b6200026a7fca4ac67347e2a262b04cbfa3077d3acf3d96ceb4e90f4c8c570d05b29485bb1060001b620002d860201b60201c565b60035460056000600460009054906101000a900473ffffffffffffffffffffffffffffffffffffffff1673ffffffffffffffffffffffffffffffffffffffff1673ffffffffffffffffffffffffffffffffffffffff16815260200190815260200160002081905550620003f0565b50565b828054620002e9906200038b565b90600052602060002090601f0160209004810192826200030d576000855562000359565b82601f106200032857805160ff191683800117855562000359565b8280016001018555821562000359579182015b82811115620003585782518255916020019190600101906200033b565b5b5090506200036891906200036c565b5090565b5b80821115620003875760008160009055506001016200036d565b5090565b60006002820490506001821680620003a457607f821691505b60208210811415620003bb57620003ba620003c1565b5b50919050565b7f4e487b7100000000000000000000000000000000000000000000000000000000600052602260045260246000fd5b61164f80620004006000396000f3fe608060405234801561001057600080fd5b50600436106100a95760003560e01c806327e235e31161007157806327e235e314610168578063313ce567146101985780634d853ee5146101b657806370a08231146101d4578063a9059cbb14610204578063dd62ed3e14610234576100a9565b806306fdde03146100ae57806309055723146100cc578063095ea7b3146100ea57806318160ddd1461011a57806323b872dd14610138575b600080fd5b6100b6610264565b6040516100c391906113ec565b60405180910390f35b6100d46102f2565b6040516100e191906113ec565b60405180910390f35b61010460048036038101906100ff9190611314565b610380565b60405161011191906113d1565b60405180910390f35b61012261075f565b60405161012f919061140e565b60405180910390f35b610152600480360381019061014d91906112c5565b610765565b60405161015f91906113d1565b60405180910390f35b610182600480360381019061017d9190611260565b610c72565b60405161018f919061140e565b60405180910390f35b6101a0610c8a565b6040516101ad919061140e565b60405180910390f35b6101be610c90565b6040516101cb91906113b6565b60405180910390f35b6101ee60048036038101906101e99190611260565b610cb6565b6040516101fb919061140e565b60405180910390f35b61021e60048036038101906102199190611314565b610d83565b60405161022b91906113d1565b60405180910390f35b61024e60048036038101906102499190611289565b611128565b60405161025b919061140e565b60405180910390f35b600080546102719061154a565b80601f016020809104026020016040519081016040528092919081815260200182805461029d9061154a565b80156102ea5780601f106102bf576101008083540402835291602001916102ea565b820191906000526020600020905b8154815290600101906020018083116102cd57829003601f168201915b505050505081565b600180546102ff9061154a565b80601f016020809104026020016040519081016040528092919081815260200182805461032b9061154a565b80156103785780601f1061034d57610100808354040283529160200191610378565b820191906000526020600020905b81548152906001019060200180831161035b57829003601f168201915b505050505081565b60006103ae7fbebab622708cb58a1eb8765410e4987dc384fb53f5c50d3a2319f03ed1378b1f60001b611233565b6103da7f5aad7e2216d50dd22bf93beab0d55ea27193db1b154c2ac88b5183560461a93760001b611233565b6104067f39fc586e03afb058b21c37ba8dd9346f1dad62a1af709ae8ccddd9a3f7a4508d60001b611233565b6104327ffd0efe67c66588d01c391f2973bd4140ec894df61fcf3a66026d1ed4725e7d7a60001b611233565b81600560003373ffffffffffffffffffffffffffffffffffffffff1673ffffffffffffffffffffffffffffffffffffffff16815260200190815260200160002054101561047e57600080fd5b6104aa7fe139a84da8f58b2ec58c1f414d3b7e3fd8c658282ce31ccfc173bcbe8d5c257960001b611233565b6104d67f436c2b75446cf55ec1b96a4662fdff6ec687b7af1adda99bdea12ad81a2df4ab60001b611233565b6105027fd0d34cfb453f74e872f17a0e10147d290c22f0afb99495107963ece528218c0b60001b611233565b61052e7fe5f0c31b47d4496bdbe05a5b2905cd8410d7ece10ce94395e84c4396a6dcf93d60001b611233565b6000821161053b57600080fd5b6105677fff56f9aa99570fede4229536f1f122d14a28125b8b33790cba7b23fdc937c93560001b611233565b6105937fd42af5ffb61b68f1015981dd63c3df15956f0c507cb8622eb40f46a2c3359ba360001b611233565b6105bf7ff3e618b68c8fdd2bbc8b38ad20e1c1d39258cc69bdf8fadda3af629b88b838e960001b611233565b81600660003373ffffffffffffffffffffffffffffffffffffffff1673ffffffffffffffffffffffffffffffffffffffff16815260200190815260200160002060008573ffffffffffffffffffffffffffffffffffffffff1673ffffffffffffffffffffffffffffffffffffffff1681526020019081526020016000208190555061066c7f0fb950642280781ad33b7b4fa474998d7ffca76804ba3a5b71f23b08cdb708b760001b611233565b6106987f072a3c49419048ce1ea2e62b6f282984632c24a81b997162968a95b03123e37260001b611233565b8273ffffffffffffffffffffffffffffffffffffffff163373ffffffffffffffffffffffffffffffffffffffff167f8c5be1e5ebec7d5bd14f71427d1e84f3dd0314c0f7b2291e5b200ac8c7c3b925846040516106f5919061140e565b60405180910390a36107297f3c3941758c8f80df0e41a751d44ad5c3eed46a75fb53ff7fb11508ca2a4b59af60001b611233565b6107557fca609ae588c30c2eb8040c74bd89cdef2932391ce9efbe36bfcb624b0e59307960001b611233565b6001905092915050565b60035481565b60006107937f7831d576af861568b5e64acd47c96e3582382a04a901771866ea5e1f03558e2560001b611233565b6107bf7fe79226eba20069b2aaa74e97c677a29136338b12d8cb69751fe8923515173b6860001b611233565b6107eb7f73c6fa906a8d58cf879e10773482581250ec220daa44c42b0e326097cd1c05a560001b611233565b6108177fd7fcca6e076a3c29d2ab4ec64dcf3835aace91c7d92c970efd0f32b00a90149a60001b611233565b81600660008673ffffffffffffffffffffffffffffffffffffffff1673ffffffffffffffffffffffffffffffffffffffff16815260200190815260200160002060008573ffffffffffffffffffffffffffffffffffffffff1673ffffffffffffffffffffffffffffffffffffffff1681526020019081526020016000205410156108a057600080fd5b6108cc7f4b1bfbcf17de7f291283bd907e6bcd90627d80a45c865e7a58e19c727b7be4dd60001b611233565b6108f87f7612101bc40ad79594697719a85894c2a9925568004dd3bcd9f2e83536407cd660001b611233565b6109247f320c31fb2386bd8524338d0a40c449bd408d458d5300c11d8c12f4e294fe6c8460001b611233565b6109507f7f02873f2250ca63311fb7e1d15e4d4094360c4486d6858e597bc91f36e469b760001b611233565b81600560008673ffffffffffffffffffffffffffffffffffffffff1673ffffffffffffffffffffffffffffffffffffffff16815260200190815260200160002054101561099c57600080fd5b6109c87fcfad368ea9a93afe446e7697f35707bc5daa4b866aba52933d9a1a0c27a20aff60001b611233565b6109f47f726e1bba8fa7be39bf95c2132eeaceea08bdb90a6ced558f1c7b1f82c01561b160001b611233565b610a207f7cfc0b5dd618f3fbe94fad0455143e2cf9ede5d8cf19ae7945a4ea4a3dc65d0f60001b611233565b81600560008673ffffffffffffffffffffffffffffffffffffffff1673ffffffffffffffffffffffffffffffffffffffff1681526020019081526020016000206000828254610a6f919061149b565b92505081905550610aa27f227dd8e16fff50d74a5c2890d8a21bbf55fd5c5e9f3a40110a4e7d00af5811cd60001b611233565b610ace7f93d9a282078af35bc7cd05ec25a6dc58d68dea67ae3d85c9ee6317131e9c7f9960001b611233565b81600560008573ffffffffffffffffffffffffffffffffffffffff1673ffffffffffffffffffffffffffffffffffffffff1681526020019081526020016000206000828254610b1d9190611445565b92505081905550610b507fe630f7d1baea2431fdefe57f3cafc8aae9b6a5e9c41befbd32446b64bc29f7d860001b611233565b610b7c7faff3aeff76e75a70eb0cfc861e487f238c7d1c35d4d865d8e8ac0c95b876c02160001b611233565b81600660008673ffffffffffffffffffffffffffffffffffffffff1673ffffffffffffffffffffffffffffffffffffffff16815260200190815260200160002060008573ffffffffffffffffffffffffffffffffffffffff1673ffffffffffffffffffffffffffffffffffffffff1681526020019081526020016000206000828254610c08919061149b565b92505081905550610c3b7f7c610da1f0a8229fe1b951018e1b16fad2bd4ded6381d2b870fc0bf774ca64f860001b611233565b610c677f93474dd6115323a533fbd19f236a484ca268265ee353f13844115df79669984460001b611233565b600190509392505050565b60056020528060005260406000206000915090505481565b60025481565b600460009054906101000a900473ffffffffffffffffffffffffffffffffffffffff1681565b6000610ce47f5fd314e44b5f61eb3548f826133ac4a32ccce0825d042ef539ceac1398d609f560001b611233565b610d107f5ff202600fc4cda142511aa8ba28e3341cdb57871d01afff0cbff2a87637f32660001b611233565b610d3c7f508509d0f7d245d51f8155db77836f30db20b66193662500aec9e73d46e3d65b60001b611233565b600560008373ffffffffffffffffffffffffffffffffffffffff1673ffffffffffffffffffffffffffffffffffffffff168152602001908152602001600020549050919050565b6000610db17f0fa8157e2bc1e1a8b3d7c3caf3bfbb0b6c0438239cb4ba7a7bc745c1bd2cb28d60001b611233565b610ddd7f89ec3d5fa47518ab656c82787cfeb8d4cccdb94b8b5e82442fdc5a699abf810560001b611233565b610e097f67a3da2ce4c4eb9fa0d0033ef5e09bdc671982053c6e8213e6b6cfce3bd651bf60001b611233565b610e357f4fdcbfdb329b93cbb587cfa862039b4b1d4b7292f17534e48c2557b72cdcf3b160001b611233565b81600560003373ffffffffffffffffffffffffffffffffffffffff1673ffffffffffffffffffffffffffffffffffffffff168152602001908152602001600020541015610e8157600080fd5b610ead7f0127321ac9f0d96d0293a1f38c24730e7cf498807e2e18a1e32228832b48a7e060001b611233565b610ed97fdc8db3295c90ff8ac4e72772fc63b91713a653e6343f7e448683ae5f45ac02cb60001b611233565b610f057f75b7fabe27e2f196ba4ec7ba16756ec0281277b92cc41819bc01aa0d9443047660001b611233565b81600560008573ffffffffffffffffffffffffffffffffffffffff1673ffffffffffffffffffffffffffffffffffffffff1681526020019081526020016000206000828254610f549190611445565b92505081905550610f877f1ed0d3e82af38f585a0f6f5609e9eb3c8d918e41cd753f6f7f167ee1620fc96960001b611233565b610fb37f9461b8ab0a957db919d73d69c5935ce164eccb69025b13c2fdfd2678ba9e70a760001b611233565b81600560003373ffffffffffffffffffffffffffffffffffffffff1673ffffffffffffffffffffffffffffffffffffffff1681526020019081526020016000206000828254611002919061149b565b925050819055506110357faac08058b7fcfec0fa99dede83b142e101657e97c500db6a6330a5f81fb8ddee60001b611233565b6110617fb348e05a046327a1b9b0aa11e83991f7cdf4060d7c565eab2d4f4763c39b497a60001b611233565b8273ffffffffffffffffffffffffffffffffffffffff163373ffffffffffffffffffffffffffffffffffffffff167fddf252ad1be2c89b69c2b068fc378daa952ba7f163c4a11628f55a4df523b3ef846040516110be919061140e565b60405180910390a36110f27f246365ab12e82fd24c290383aa3e2e9c7b69fcbef09eaad7381b0c22046b448860001b611233565b61111e7fa30ffebe28d5bd57d953a3ede94ccb6022afe40c986c266b0bcff3d899ccf38e60001b611233565b6001905092915050565b60006111567f62bd97270041134d24aaa8b1084aa775a91aa44f389916f5aeb9d79e558cbe7e60001b611233565b6111827f30c228534b679c7a894cf861185f4b08b8a5354535418dc792a6a16c5737679660001b611233565b6111ae7fd26de2d9114ef91ebbdb5fe877c5d1f9aa9dd6bc98887e878c4bbdfd3d30039360001b611233565b600660008473ffffffffffffffffffffffffffffffffffffffff1673ffffffffffffffffffffffffffffffffffffffff16815260200190815260200160002060008373ffffffffffffffffffffffffffffffffffffffff1673ffffffffffffffffffffffffffffffffffffffff16815260200190815260200160002054905092915050565b50565b600081359050611245816115eb565b92915050565b60008135905061125a81611602565b92915050565b60006020828403121561127257600080fd5b600061128084828501611236565b91505092915050565b6000806040838503121561129c57600080fd5b60006112aa85828601611236565b92505060206112bb85828601611236565b9150509250929050565b6000806000606084860312156112da57600080fd5b60006112e886828701611236565b93505060206112f986828701611236565b925050604061130a8682870161124b565b9150509250925092565b6000806040838503121561132757600080fd5b600061133585828601611236565b92505060206113468582860161124b565b9150509250929050565b611359816114cf565b82525050565b611368816114e1565b82525050565b600061137982611429565b6113838185611434565b9350611393818560208601611517565b61139c816115da565b840191505092915050565b6113b08161150d565b82525050565b60006020820190506113cb6000830184611350565b92915050565b60006020820190506113e6600083018461135f565b92915050565b60006020820190508181036000830152611406818461136e565b905092915050565b600060208201905061142360008301846113a7565b92915050565b600081519050919050565b600082825260208201905092915050565b60006114508261150d565b915061145b8361150d565b9250827fffffffffffffffffffffffffffffffffffffffffffffffffffffffffffffffff038211156114905761148f61157c565b5b828201905092915050565b60006114a68261150d565b91506114b18361150d565b9250828210156114c4576114c361157c565b5b828203905092915050565b60006114da826114ed565b9050919050565b60008115159050919050565b600073ffffffffffffffffffffffffffffffffffffffff82169050919050565b6000819050919050565b60005b8381101561153557808201518184015260208101905061151a565b83811115611544576000848401525b50505050565b6000600282049050600182168061156257607f821691505b60208210811415611576576115756115ab565b5b50919050565b7f4e487b7100000000000000000000000000000000000000000000000000000000600052601160045260246000fd5b7f4e487b7100000000000000000000000000000000000000000000000000000000600052602260045260246000fd5b6000601f19601f8301169050919050565b6115f4816114cf565b81146115ff57600080fd5b50565b61160b8161150d565b811461161657600080fd5b5056fea2646970667358221220186d46126d32e1304149df52bc3c38d5090f8b04a1f8620efcb0b552fef3c3f864736f6c63430008040033",
  "linkReferences": {},
  "deployedLinkReferences": {}
}